{
  "_format": "hh-sol-artifact-1",
  "contractName": "SupplyChainProvenance",
  "sourceName": "contracts/SupplyChainProvenance.sol",
  "abi": [
    {
      "inputs": [],
      "stateMutability": "nonpayable",
      "type": "constructor"
    },
    {
      "anonymous": false,
      "inputs": [
        {
          "indexed": true,
          "internalType": "uint256",
          "name": "partId",
          "type": "uint256"
        },
        {
          "indexed": true,
          "internalType": "address",
          "name": "from",
          "type": "address"
        },
        {
          "indexed": true,
          "internalType": "address",
          "name": "to",
          "type": "address"
        }
      ],
      "name": "CustodyTransferred",
      "type": "event"
    },
    {
      "anonymous": false,
      "inputs": [
        {
          "indexed": true,
          "internalType": "uint256",
          "name": "partId",
          "type": "uint256"
        },
        {
          "indexed": false,
          "internalType": "uint256",
          "name": "recordId",
          "type": "uint256"
        },
        {
          "indexed": true,
          "internalType": "address",
          "name": "mro",
          "type": "address"
        }
      ],
      "name": "MaintenanceRecorded",
      "type": "event"
    },
    {
      "anonymous": false,
      "inputs": [
        {
          "indexed": true,
          "internalType": "uint256",
          "name": "partId",
          "type": "uint256"
        },
        {
          "indexed": false,
          "internalType": "string",
          "name": "partNumber",
          "type": "string"
        },
        {
          "indexed": true,
          "internalType": "address",
          "name": "manufacturer",
          "type": "address"
        }
      ],
      "name": "PartRegistered",
      "type": "event"
    },
    {
      "anonymous": false,
      "inputs": [
        {
          "indexed": true,
          "internalType": "uint256",
          "name": "partId",
          "type": "uint256"
        },
        {
          "indexed": false,
          "internalType": "enum SupplyChainProvenance.PartStatus",
          "name": "newStatus",
          "type": "uint8"
        }
      ],
      "name": "PartStatusUpdated",
      "type": "event"
    },
    {
      "anonymous": false,
      "inputs": [
        {
          "indexed": true,
          "internalType": "address",
          "name": "stakeholder",
          "type": "address"
        },
        {
          "indexed": false,
          "internalType": "string",
          "name": "name",
          "type": "string"
        },
        {
          "indexed": false,
          "internalType": "enum SupplyChainProvenance.Role",
          "name": "role",
          "type": "uint8"
        }
      ],
      "name": "StakeholderRegistered",
      "type": "event"
    },
    {
      "inputs": [],
      "name": "admin",
      "outputs": [
        {
          "internalType": "address",
          "name": "",
          "type": "address"
        }
      ],
      "stateMutability": "view",
      "type": "function"
    },
    {
      "inputs": [
        {
          "internalType": "uint256",
          "name": "_partId",
          "type": "uint256"
        }
      ],
      "name": "getCustodyHistory",
      "outputs": [
        {
          "components": [
            {
              "internalType": "uint256",
              "name": "transferId",
              "type": "uint256"
            },
            {
              "internalType": "uint256",
              "name": "partId",
              "type": "uint256"
            },
            {
              "internalType": "address",
              "name": "from",
              "type": "address"
            },
            {
              "internalType": "address",
              "name": "to",
              "type": "address"
            },
            {
              "internalType": "uint256",
              "name": "timestamp",
              "type": "uint256"
            },
            {
              "internalType": "string",
              "name": "reason",
              "type": "string"
            }
          ],
          "internalType": "struct SupplyChainProvenance.CustodyTransfer[]",
          "name": "",
          "type": "tuple[]"
        }
      ],
      "stateMutability": "view",
      "type": "function"
    },
    {
      "inputs": [
        {
          "internalType": "uint256",
          "name": "_partId",
          "type": "uint256"
        }
      ],
      "name": "getMaintenanceHistory",
      "outputs": [
        {
          "components": [
            {
              "internalType": "uint256",
              "name": "recordId",
              "type": "uint256"
            },
            {
              "internalType": "uint256",
              "name": "partId",
              "type": "uint256"
            },
            {
              "internalType": "address",
              "name": "mro",
              "type": "address"
            },
            {
              "internalType": "string",
              "name": "maintenanceType",
              "type": "string"
            },
            {
              "internalType": "uint256",
              "name": "timestamp",
              "type": "uint256"
            },
            {
              "internalType": "string",
              "name": "ipfsHash",
              "type": "string"
            },
            {
              "internalType": "string",
              "name": "notes",
              "type": "string"
            }
          ],
          "internalType": "struct SupplyChainProvenance.MaintenanceRecord[]",
          "name": "",
          "type": "tuple[]"
        }
      ],
      "stateMutability": "view",
      "type": "function"
    },
    {
      "inputs": [
        {
          "internalType": "uint256",
          "name": "_partId",
          "type": "uint256"
        }
      ],
      "name": "getPartDetails",
      "outputs": [
        {
          "internalType": "string",
          "name": "partNumber",
          "type": "string"
        },
        {
          "internalType": "string",
          "name": "serialNumber",
          "type": "string"
        },
        {
          "internalType": "string",
          "name": "partName",
          "type": "string"
        },
        {
          "internalType": "address",
          "name": "manufacturer",
          "type": "address"
        },
        {
          "internalType": "enum SupplyChainProvenance.PartStatus",
          "name": "status",
          "type": "uint8"
        },
        {
          "internalType": "uint256",
          "name": "manufacturedDate",
          "type": "uint256"
        },
        {
          "internalType": "string",
          "name": "ipfsHash",
          "type": "string"
        },
        {
          "internalType": "address",
          "name": "currentOwner",
          "type": "address"
        }
      ],
      "stateMutability": "view",
      "type": "function"
    },
    {
      "inputs": [
        {
          "internalType": "address",
          "name": "_stakeholder",
          "type": "address"
        }
      ],
      "name": "getStakeholderDetails",
      "outputs": [
        {
          "internalType": "string",
          "name": "name",
          "type": "string"
        },
        {
          "internalType": "enum SupplyChainProvenance.Role",
          "name": "role",
          "type": "uint8"
        },
        {
          "internalType": "bool",
          "name": "isActive",
          "type": "bool"
        },
        {
          "internalType": "uint256",
          "name": "registeredAt",
          "type": "uint256"
        }
      ],
      "stateMutability": "view",
      "type": "function"
    },
    {
      "inputs": [
        {
          "internalType": "address",
          "name": "_stakeholder",
          "type": "address"
        }
      ],
      "name": "getStakeholderParts",
      "outputs": [
        {
          "internalType": "uint256[]",
          "name": "",
          "type": "uint256[]"
        }
      ],
      "stateMutability": "view",
      "type": "function"
    },
    {
      "inputs": [],
      "name": "maintenanceCounter",
      "outputs": [
        {
          "internalType": "uint256",
          "name": "",
          "type": "uint256"
        }
      ],
      "stateMutability": "view",
      "type": "function"
    },
    {
      "inputs": [],
      "name": "partCounter",
      "outputs": [
        {
          "internalType": "uint256",
          "name": "",
          "type": "uint256"
        }
      ],
      "stateMutability": "view",
      "type": "function"
    },
    {
      "inputs": [
        {
          "internalType": "uint256",
          "name": "",
          "type": "uint256"
        },
        {
          "internalType": "uint256",
          "name": "",
          "type": "uint256"
        }
      ],
      "name": "partCustodyHistory",
      "outputs": [
        {
          "internalType": "uint256",
          "name": "transferId",
          "type": "uint256"
        },
        {
          "internalType": "uint256",
          "name": "partId",
          "type": "uint256"
        },
        {
          "internalType": "address",
          "name": "from",
          "type": "address"
        },
        {
          "internalType": "address",
          "name": "to",
          "type": "address"
        },
        {
          "internalType": "uint256",
          "name": "timestamp",
          "type": "uint256"
        },
        {
          "internalType": "string",
          "name": "reason",
          "type": "string"
        }
      ],
      "stateMutability": "view",
      "type": "function"
    },
    {
      "inputs": [
        {
          "internalType": "uint256",
          "name": "",
          "type": "uint256"
        },
        {
          "internalType": "uint256",
          "name": "",
          "type": "uint256"
        }
      ],
      "name": "partMaintenanceHistory",
      "outputs": [
        {
          "internalType": "uint256",
          "name": "recordId",
          "type": "uint256"
        },
        {
          "internalType": "uint256",
          "name": "partId",
          "type": "uint256"
        },
        {
          "internalType": "address",
          "name": "mro",
          "type": "address"
        },
        {
          "internalType": "string",
          "name": "maintenanceType",
          "type": "string"
        },
        {
          "internalType": "uint256",
          "name": "timestamp",
          "type": "uint256"
        },
        {
          "internalType": "string",
          "name": "ipfsHash",
          "type": "string"
        },
        {
          "internalType": "string",
          "name": "notes",
          "type": "string"
        }
      ],
      "stateMutability": "view",
      "type": "function"
    },
    {
      "inputs": [
        {
          "internalType": "uint256",
          "name": "",
          "type": "uint256"
        }
      ],
      "name": "parts",
      "outputs": [
        {
          "internalType": "uint256",
          "name": "partId",
          "type": "uint256"
        },
        {
          "internalType": "string",
          "name": "partNumber",
          "type": "string"
        },
        {
          "internalType": "string",
          "name": "serialNumber",
          "type": "string"
        },
        {
          "internalType": "string",
          "name": "partName",
          "type": "string"
        },
        {
          "internalType": "address",
          "name": "manufacturer",
          "type": "address"
        },
        {
          "internalType": "enum SupplyChainProvenance.PartStatus",
          "name": "status",
          "type": "uint8"
        },
        {
          "internalType": "uint256",
          "name": "manufacturedDate",
          "type": "uint256"
        },
        {
          "internalType": "string",
          "name": "ipfsHash",
          "type": "string"
        },
        {
          "internalType": "address",
          "name": "currentOwner",
          "type": "address"
        },
        {
          "internalType": "bool",
          "name": "exists",
          "type": "bool"
        }
      ],
      "stateMutability": "view",
      "type": "function"
    },
    {
      "inputs": [
        {
          "internalType": "uint256",
          "name": "_partId",
          "type": "uint256"
        },
        {
          "internalType": "string",
          "name": "_maintenanceType",
          "type": "string"
        },
        {
          "internalType": "string",
          "name": "_ipfsHash",
          "type": "string"
        },
        {
          "internalType": "string",
          "name": "_notes",
          "type": "string"
        }
      ],
      "name": "recordMaintenance",
      "outputs": [
        {
          "internalType": "uint256",
          "name": "",
          "type": "uint256"
        }
      ],
      "stateMutability": "nonpayable",
      "type": "function"
    },
    {
      "inputs": [
        {
          "internalType": "string",
          "name": "_partNumber",
          "type": "string"
        },
        {
          "internalType": "string",
          "name": "_serialNumber",
          "type": "string"
        },
        {
          "internalType": "string",
          "name": "_partName",
          "type": "string"
        },
        {
          "internalType": "string",
          "name": "_ipfsHash",
          "type": "string"
        }
      ],
      "name": "registerPart",
      "outputs": [
        {
          "internalType": "uint256",
          "name": "",
          "type": "uint256"
        }
      ],
      "stateMutability": "nonpayable",
      "type": "function"
    },
    {
      "inputs": [
        {
          "internalType": "address",
          "name": "_stakeholderAddress",
          "type": "address"
        },
        {
          "internalType": "string",
          "name": "_name",
          "type": "string"
        },
        {
          "internalType": "enum SupplyChainProvenance.Role",
          "name": "_role",
          "type": "uint8"
        }
      ],
      "name": "registerStakeholder",
      "outputs": [],
      "stateMutability": "nonpayable",
      "type": "function"
    },
    {
      "inputs": [
        {
          "internalType": "address",
          "name": "",
          "type": "address"
        },
        {
          "internalType": "uint256",
          "name": "",
          "type": "uint256"
        }
      ],
      "name": "stakeholderParts",
      "outputs": [
        {
          "internalType": "uint256",
          "name": "",
          "type": "uint256"
        }
      ],
      "stateMutability": "view",
      "type": "function"
    },
    {
      "inputs": [
        {
          "internalType": "address",
          "name": "",
          "type": "address"
        }
      ],
      "name": "stakeholders",
      "outputs": [
        {
          "internalType": "address",
          "name": "walletAddress",
          "type": "address"
        },
        {
          "internalType": "string",
          "name": "name",
          "type": "string"
        },
        {
          "internalType": "enum SupplyChainProvenance.Role",
          "name": "role",
          "type": "uint8"
        },
        {
          "internalType": "bool",
          "name": "isActive",
          "type": "bool"
        },
        {
          "internalType": "uint256",
          "name": "registeredAt",
          "type": "uint256"
        }
      ],
      "stateMutability": "view",
      "type": "function"
    },
    {
      "inputs": [],
      "name": "transferCounter",
      "outputs": [
        {
          "internalType": "uint256",
          "name": "",
          "type": "uint256"
        }
      ],
      "stateMutability": "view",
      "type": "function"
    },
    {
      "inputs": [
        {
          "internalType": "uint256",
          "name": "_partId",
          "type": "uint256"
        },
        {
          "internalType": "address",
          "name": "_to",
          "type": "address"
        },
        {
          "internalType": "string",
          "name": "_reason",
          "type": "string"
        }
      ],
      "name": "transferCustody",
      "outputs": [],
      "stateMutability": "nonpayable",
      "type": "function"
    },
    {
      "inputs": [
        {
          "internalType": "uint256",
          "name": "_partId",
          "type": "uint256"
        },
        {
          "internalType": "enum SupplyChainProvenance.PartStatus",
          "name": "_newStatus",
          "type": "uint8"
        }
      ],
      "name": "updatePartStatus",
      "outputs": [],
      "stateMutability": "nonpayable",
      "type": "function"
    },
    {
      "inputs": [
        {
          "internalType": "uint256",
          "name": "_partId",
          "type": "uint256"
        }
      ],
      "name": "verifyPartAuthenticity",
      "outputs": [
        {
          "internalType": "bool",
          "name": "",
          "type": "bool"
        }
      ],
      "stateMutability": "view",
      "type": "function"
    }
  ],
  "bytecode": "0x608060405234801561001057600080fd5b50600080546001600160a01b03191633178155600181905560028190556003556128dc8061003f6000396000f3fe608060405234801561001057600080fd5b506004361061012c5760003560e01c8063a511da58116100ad578063d75af31e11610071578063d75af31e146102e0578063ed8fbf5214610300578063f851a44014610309578063fc2d8d9e14610334578063fdc253301461035457600080fd5b8063a511da581461024a578063a6a7f0b01461025d578063ae51cef914610270578063c07cfca914610293578063c9eb4662146102b757600080fd5b806365b79c85116100f457806365b79c85146101ca57806369087119146101ea578063859e952b1461020f578063910bc3a11461022457806398431dbc1461023757600080fd5b806304204afa146101315780632fb71bdb1461016057806330bc25c8146101875780633cf8ddf21461019e5780635763ee28146101a7575b600080fd5b61014461013f366004611ebe565b610367565b6040516101579796959493929190611f26565b60405180910390f35b61017361016e366004611f8d565b610564565b604051610157989796959493929190611fdd565b61019060015481565b604051908152602001610157565b61019060035481565b6101ba6101b5366004611f8d565b610914565b6040519015158152602001610157565b6101dd6101d8366004611f8d565b610a43565b604051610157919061206c565b6101fd6101f8366004611ebe565b610cd2565b60405161015796959493929190612145565b61022261021d36600461225d565b610dc0565b005b6102226102323660046122bf565b611008565b610222610245366004612316565b6112c1565b610190610258366004612346565b6113b1565b61019061026b3660046123f3565b611617565b61028361027e36600461241d565b611648565b604051610157949392919061243f565b6102a66102a136600461241d565b61178c565b604051610157959493929190612478565b6102ca6102c5366004611f8d565b611854565b6040516101579a999897969594939291906124c3565b6102f36102ee366004611f8d565b611ae3565b604051610157919061255f565b61019060025481565b60005461031c906001600160a01b031681565b6040516001600160a01b039091168152602001610157565b61034761034236600461241d565b611c52565b60405161015791906125fe565b610190610362366004612642565b611cbe565b6006602052816000526040600020818154811061038357600080fd5b600091825260209091206007909102018054600182015460028301546003840180549396509194506001600160a01b031692916103bf90612677565b80601f01602080910402602001604051908101604052809291908181526020018280546103eb90612677565b80156104385780601f1061040d57610100808354040283529160200191610438565b820191906000526020600020905b81548152906001019060200180831161041b57829003601f168201915b50505050509080600401549080600501805461045390612677565b80601f016020809104026020016040519081016040528092919081815260200182805461047f90612677565b80156104cc5780601f106104a1576101008083540402835291602001916104cc565b820191906000526020600020905b8154815290600101906020018083116104af57829003601f168201915b5050505050908060060180546104e190612677565b80601f016020809104026020016040519081016040528092919081815260200182805461050d90612677565b801561055a5780601f1061052f5761010080835404028352916020019161055a565b820191906000526020600020905b81548152906001019060200180831161053d57829003601f168201915b5050505050905087565b6060806060600080600060606000886005600082815260200190815260200160002060070160149054906101000a900460ff166105bc5760405162461bcd60e51b81526004016105b3906126ab565b60405180910390fd5b6000600560008c815260200190815260200160002060405180610140016040529081600082015481526020016001820180546105f790612677565b80601f016020809104026020016040519081016040528092919081815260200182805461062390612677565b80156106705780601f1061064557610100808354040283529160200191610670565b820191906000526020600020905b81548152906001019060200180831161065357829003601f168201915b5050505050815260200160028201805461068990612677565b80601f01602080910402602001604051908101604052809291908181526020018280546106b590612677565b80156107025780601f106106d757610100808354040283529160200191610702565b820191906000526020600020905b8154815290600101906020018083116106e557829003601f168201915b5050505050815260200160038201805461071b90612677565b80601f016020809104026020016040519081016040528092919081815260200182805461074790612677565b80156107945780601f1061076957610100808354040283529160200191610794565b820191906000526020600020905b81548152906001019060200180831161077757829003601f168201915b50505091835250506004828101546001600160a01b0381166020840152604090920191600160a01b900460ff16908111156107d1576107d1611fa6565b60048111156107e2576107e2611fa6565b81526020016005820154815260200160068201805461080090612677565b80601f016020809104026020016040519081016040528092919081815260200182805461082c90612677565b80156108795780601f1061084e57610100808354040283529160200191610879565b820191906000526020600020905b81548152906001019060200180831161085c57829003601f168201915b505050505081526020016007820160009054906101000a90046001600160a01b03166001600160a01b03166001600160a01b031681526020016007820160149054906101000a900460ff161515151581525050905080602001518160400151826060015183608001518460a001518560c001518660e00151876101000151995099509950995099509950995099505050919395975091939597565b33600090815260046020819052604082206002015460ff168181111561093c5761093c611fa6565b146109995760405162461bcd60e51b815260206004820152602760248201527f4f6e6c7920726567756c61746f72732063616e20706572666f726d20746869736044820152661030b1ba34b7b760c91b60648201526084016105b3565b6000828152600560205260409020600701548290600160a01b900460ff166109d35760405162461bcd60e51b81526004016105b3906126ab565b600083815260056020526040902060070154600160a01b900460ff168015610a3a5750600160008481526005602090815260408083206004908101546001600160a01b03168452918290529091206002015460ff1690811115610a3857610a38611fa6565b145b91505b50919050565b6000818152600560205260409020600701546060908290600160a01b900460ff16610a805760405162461bcd60e51b81526004016105b3906126ab565b600083815260066020908152604080832080548251818502810185019093528083529193909284015b82821015610cc65760008481526020908190206040805160e081018252600786029092018054835260018101549383019390935260028301546001600160a01b031690820152600382018054919291606084019190610b0790612677565b80601f0160208091040260200160405190810160405280929190818152602001828054610b3390612677565b8015610b805780601f10610b5557610100808354040283529160200191610b80565b820191906000526020600020905b815481529060010190602001808311610b6357829003601f168201915b5050505050815260200160048201548152602001600582018054610ba390612677565b80601f0160208091040260200160405190810160405280929190818152602001828054610bcf90612677565b8015610c1c5780601f10610bf157610100808354040283529160200191610c1c565b820191906000526020600020905b815481529060010190602001808311610bff57829003601f168201915b50505050508152602001600682018054610c3590612677565b80601f0160208091040260200160405190810160405280929190818152602001828054610c6190612677565b8015610cae5780601f10610c8357610100808354040283529160200191610cae565b820191906000526020600020905b815481529060010190602001808311610c9157829003601f168201915b50505050508152505081526020019060010190610aa9565b50505050915050919050565b60076020528160005260406000208181548110610cee57600080fd5b60009182526020909120600690910201805460018201546002830154600384015460048501546005860180549598509396506001600160a01b03928316959290911693909290610d3d90612677565b80601f0160208091040260200160405190810160405280929190818152602001828054610d6990612677565b8015610db65780601f10610d8b57610100808354040283529160200191610db6565b820191906000526020600020905b815481529060010190602001808311610d9957829003601f168201915b5050505050905086565b6000546001600160a01b03163314610e255760405162461bcd60e51b815260206004820152602260248201527f4f6e6c792061646d696e2063616e20706572666f726d2074686973206163746960448201526137b760f11b60648201526084016105b3565b6000816004811115610e3957610e39611fa6565b03610e755760405162461bcd60e51b815260206004820152600c60248201526b496e76616c696420726f6c6560a01b60448201526064016105b3565b6001600160a01b038316600090815260046020526040902060020154610100900460ff1615610ee65760405162461bcd60e51b815260206004820152601e60248201527f5374616b65686f6c64657220616c72656164792072656769737465726564000060448201526064016105b3565b6040518060a00160405280846001600160a01b03168152602001838152602001826004811115610f1857610f18611fa6565b815260016020808301829052426040938401526001600160a01b0387811660009081526004835293909320845181546001600160a01b031916941693909317835583015190820190610f6a9082612727565b50604082015160028201805460ff19166001836004811115610f8e57610f8e611fa6565b021790555060608201516002820180549115156101000261ff00199092169190911790556080909101516003909101556040516001600160a01b038416907f816ef0ec1a5b0eda2fac222a6ee8376c567f065c853574681996ab2bfe38694c90610ffb90859085906127e7565b60405180910390a2505050565b6000838152600560205260409020600701548390600160a01b900460ff166110425760405162461bcd60e51b81526004016105b3906126ab565b60008481526005602052604090206007015484906001600160a01b0316331461107d5760405162461bcd60e51b81526004016105b390612812565b6001600160a01b038416600090815260046020526040902060020154610100900460ff166110ff5760405162461bcd60e51b815260206004820152602960248201527f526563697069656e74206973206e6f742061207265676973746572656420737460448201526830b5b2b437b63232b960b91b60648201526084016105b3565b336001600160a01b038516036111575760405162461bcd60e51b815260206004820152601b60248201527f43616e6e6f74207472616e7366657220746f20796f757273656c66000000000060448201526064016105b3565b6003805490600061116783612859565b90915550506040805160c0810182526003805482526020808301898152338486019081526001600160a01b038a811660608701908152426080880190815260a088018c815260008f815260078852998a20805460018181018355918c5297909a20895160069098020196875594519886019890985591516002850180549183166001600160a01b03199283161790559151948401805495909116949091169390931790925592516004840155519091829160058201906112279082612727565b50505060008681526005602090815260408083206007810180546001600160a01b0319166001600160a01b038b169081179091556004909101805460ff60a01b1916600160a01b179055808452600883528184208054600181018255908552928420909201899055519091339189917f24aa18fe2c4313c2ac5230b1bfc5a1d7ae3aa27a4ba8b1cd91d35fab737fdc8b91a4505050505050565b6000828152600560205260409020600701548290600160a01b900460ff166112fb5760405162461bcd60e51b81526004016105b3906126ab565b60008381526005602052604090206007015483906001600160a01b031633146113365760405162461bcd60e51b81526004016105b390612812565b600084815260056020526040902060049081018054859260ff60a01b1990911690600160a01b90849081111561136e5761136e611fa6565b0217905550837f6661c3d1c5ae3dbb4656111d74a5152cf90dc5d1d427b814c84c20fca346abff846040516113a39190612880565b60405180910390a250505050565b600060013360009081526004602081905260409091206002015460ff16908111156113de576113de611fa6565b1461143e5760405162461bcd60e51b815260206004820152602a60248201527f4f6e6c79206d616e756661637475726572732063616e20706572666f726d20746044820152693434b99030b1ba34b7b760b11b60648201526084016105b3565b6001805490600061144e83612859565b909155505060408051610140810182526001548152602081018790529081018590526060810184905233608082015260a081016000815242602080830191909152604080830186905233606084015260016080909301839052825460009081526005835220835181559083015190918201906114ca9082612727565b50604082015160028201906114df9082612727565b50606082015160038201906114f49082612727565b506080820151600480830180546001600160a01b039093166001600160a01b031984168117825560a08601519391926001600160a81b03199092161790600160a01b90849081111561154857611548611fa6565b021790555060c0820151600582015560e0820151600682019061156b9082612727565b5061010082015160079091018054610120909301511515600160a01b026001600160a81b03199093166001600160a01b03909216919091179190911790553360008181526008602090815260408083206001805482548083018455928652939094200191909155905490517fbf62bfdef4bfa95ee00aa271aee2129dbf2c61c0b430df4a983d561ea472fb1390611603908990612893565b60405180910390a350600154949350505050565b6008602052816000526040600020818154811061163357600080fd5b90600052602060002001600091509150505481565b6001600160a01b038082166000908152600460209081526040808320815160a081019092528054909416815260018401805460609585948594859490939184019161169290612677565b80601f01602080910402602001604051908101604052809291908181526020018280546116be90612677565b801561170b5780601f106116e05761010080835404028352916020019161170b565b820191906000526020600020905b8154815290600101906020018083116116ee57829003601f168201915b5050509183525050600282015460209091019060ff16600481111561173257611732611fa6565b600481111561174357611743611fa6565b81526002820154610100900460ff161515602080830191909152600390920154604091820152908201519082015160608301516080909301519199909850919650945092505050565b600460205260009081526040902080546001820180546001600160a01b0390921692916117b890612677565b80601f01602080910402602001604051908101604052809291908181526020018280546117e490612677565b80156118315780601f1061180657610100808354040283529160200191611831565b820191906000526020600020905b81548152906001019060200180831161181457829003601f168201915b505050506002830154600390930154919260ff8082169361010090920416915085565b6005602052600090815260409020805460018201805491929161187690612677565b80601f01602080910402602001604051908101604052809291908181526020018280546118a290612677565b80156118ef5780601f106118c4576101008083540402835291602001916118ef565b820191906000526020600020905b8154815290600101906020018083116118d257829003601f168201915b50505050509080600201805461190490612677565b80601f016020809104026020016040519081016040528092919081815260200182805461193090612677565b801561197d5780601f106119525761010080835404028352916020019161197d565b820191906000526020600020905b81548152906001019060200180831161196057829003601f168201915b50505050509080600301805461199290612677565b80601f01602080910402602001604051908101604052809291908181526020018280546119be90612677565b8015611a0b5780601f106119e057610100808354040283529160200191611a0b565b820191906000526020600020905b8154815290600101906020018083116119ee57829003601f168201915b505050506004830154600584015460068501805494956001600160a01b03841695600160a01b90940460ff1694509192611a4490612677565b80601f0160208091040260200160405190810160405280929190818152602001828054611a7090612677565b8015611abd5780601f10611a9257610100808354040283529160200191611abd565b820191906000526020600020905b815481529060010190602001808311611aa057829003601f168201915b505050600790930154919250506001600160a01b0381169060ff600160a01b909104168a565b6000818152600560205260409020600701546060908290600160a01b900460ff16611b205760405162461bcd60e51b81526004016105b3906126ab565b600083815260076020908152604080832080548251818502810185019093528083529193909284015b82821015610cc65760008481526020908190206040805160c081018252600686029092018054835260018101549383019390935260028301546001600160a01b039081169183019190915260038301541660608201526004820154608082015260058201805491929160a084019190611bc190612677565b80601f0160208091040260200160405190810160405280929190818152602001828054611bed90612677565b8015611c3a5780601f10611c0f57610100808354040283529160200191611c3a565b820191906000526020600020905b815481529060010190602001808311611c1d57829003601f168201915b50505050508152505081526020019060010190611b49565b6001600160a01b038116600090815260086020908152604091829020805483518184028101840190945280845260609392830182828015611cb257602002820191906000526020600020905b815481526020019060010190808311611c9e575b50505050509050919050565b600060033360009081526004602081905260409091206002015460ff1690811115611ceb57611ceb611fa6565b14611d425760405162461bcd60e51b815260206004820152602160248201527f4f6e6c79204d524f732063616e20706572666f726d207468697320616374696f6044820152603760f91b60648201526084016105b3565b6000858152600560205260409020600701548590600160a01b900460ff16611d7c5760405162461bcd60e51b81526004016105b3906126ab565b60028054906000611d8c83612859565b90915550506040805160e08101825260028054825260208083018a815233848601908152606085018b815242608087015260a086018b905260c086018a905260008d815260068552968720805460018082018355918952949097208651600790950201938455915195830195909555935191810180546001600160a01b0319166001600160a01b03909316929092179091559151909182916003820190611e339082612727565b506080820151600482015560a08201516005820190611e529082612727565b5060c08201516006820190611e679082612727565b505050336001600160a01b0316877f9d485f7e67d0da8c32cae6c8143f79dda2ba2218e300a4632303b226a0462cd5600254604051611ea891815260200190565b60405180910390a3505060025495945050505050565b60008060408385031215611ed157600080fd5b50508035926020909101359150565b6000815180845260005b81811015611f0657602081850181015186830182015201611eea565b506000602082860101526020601f19601f83011685010191505092915050565b87815286602082015260018060a01b038616604082015260e060608201526000611f5360e0830187611ee0565b85608084015282810360a0840152611f6b8186611ee0565b905082810360c0840152611f7f8185611ee0565b9a9950505050505050505050565b600060208284031215611f9f57600080fd5b5035919050565b634e487b7160e01b600052602160045260246000fd5b60058110611fda57634e487b7160e01b600052602160045260246000fd5b50565b6000610100808352611ff18184018c611ee0565b90508281036020840152612005818b611ee0565b90508281036040840152612019818a611ee0565b6001600160a01b03898116606086015290915061203588611fbc565b8760808501528660a085015283820360c08501526120538287611ee0565b925080851660e085015250509998505050505050505050565b60006020808301818452808551808352604092508286019150828160051b87010184880160005b8381101561213757888303603f190185528151805184528781015188850152868101516001600160a01b03168785015260608082015160e082870181905291906120df83880182611ee0565b92505050608080830151818701525060a080830151868303828801526121058382611ee0565b9250505060c080830151925085820381870152506121238183611ee0565b968901969450505090860190600101612093565b509098975050505050505050565b868152602081018690526001600160a01b038581166040830152841660608201526080810183905260c060a0820181905260009061218590830184611ee0565b98975050505050505050565b80356001600160a01b03811681146121a857600080fd5b919050565b634e487b7160e01b600052604160045260246000fd5b600082601f8301126121d457600080fd5b813567ffffffffffffffff808211156121ef576121ef6121ad565b604051601f8301601f19908116603f01168101908282118183101715612217576122176121ad565b8160405283815286602085880101111561223057600080fd5b836020870160208301376000602085830101528094505050505092915050565b60058110611fda57600080fd5b60008060006060848603121561227257600080fd5b61227b84612191565b9250602084013567ffffffffffffffff81111561229757600080fd5b6122a3868287016121c3565b92505060408401356122b481612250565b809150509250925092565b6000806000606084860312156122d457600080fd5b833592506122e460208501612191565b9150604084013567ffffffffffffffff81111561230057600080fd5b61230c868287016121c3565b9150509250925092565b6000806040838503121561232957600080fd5b82359150602083013561233b81612250565b809150509250929050565b6000806000806080858703121561235c57600080fd5b843567ffffffffffffffff8082111561237457600080fd5b612380888389016121c3565b9550602087013591508082111561239657600080fd5b6123a2888389016121c3565b945060408701359150808211156123b857600080fd5b6123c4888389016121c3565b935060608701359150808211156123da57600080fd5b506123e7878288016121c3565b91505092959194509250565b6000806040838503121561240657600080fd5b61240f83612191565b946020939093013593505050565b60006020828403121561242f57600080fd5b61243882612191565b9392505050565b6080815260006124526080830187611ee0565b905061245d85611fbc565b60208201949094529115156040830152606090910152919050565b6001600160a01b038616815260a06020820181905260009061249c90830187611ee0565b90506124a785611fbc565b6040820194909452911515606083015260809091015292915050565b60006101408c83528060208401526124dd8184018d611ee0565b905082810360408401526124f1818c611ee0565b90508281036060840152612505818b611ee0565b6001600160a01b038a8116608086015290915061252189611fbc565b8860a08501528760c085015283820360e085015261253f8288611ee0565b951661010084015250509015156101209091015298975050505050505050565b60006020808301818452808551808352604092508286019150828160051b87010184880160005b8381101561213757888303603f190185528151805184528781015188850152868101516001600160a01b0390811688860152606080830151909116908501526080808201519085015260a09081015160c0918501829052906125ea81860183611ee0565b968901969450505090860190600101612586565b6020808252825182820181905260009190848201906040850190845b818110156126365783518352928401929184019160010161261a565b50909695505050505050565b6000806000806080858703121561265857600080fd5b84359350602085013567ffffffffffffffff8082111561239657600080fd5b600181811c9082168061268b57607f821691505b602082108103610a3d57634e487b7160e01b600052602260045260246000fd5b60208082526013908201527214185c9d08191bd95cc81b9bdd08195e1a5cdd606a1b604082015260600190565b601f82111561272257600081815260208120601f850160051c810160208610156126ff5750805b601f850160051c820191505b8181101561271e5782815560010161270b565b5050505b505050565b815167ffffffffffffffff811115612741576127416121ad565b6127558161274f8454612677565b846126d8565b602080601f83116001811461278a57600084156127725750858301515b600019600386901b1c1916600185901b17855561271e565b600085815260208120601f198616915b828110156127b95788860151825594840194600190910190840161279a565b50858210156127d75787850151600019600388901b60f8161c191681555b5050505050600190811b01905550565b6040815260006127fa6040830185611ee0565b905061280583611fbc565b8260208301529392505050565b60208082526027908201527f4f6e6c792070617274206f776e65722063616e20706572666f726d20746869736040820152661030b1ba34b7b760c91b606082015260800190565b60006001820161287957634e487b7160e01b600052601160045260246000fd5b5060010190565b6020810161288d83611fbc565b91905290565b6020815260006124386020830184611ee056fea264697066735822122003d4633ee2c16a1caf72270dc2c8e9ec2f5736bfbe7e561fbced8b238a7f54ec64736f6c63430008140033",
  "linkReferences": {},
  "deployedLinkReferences": {}
}